{
  "contractName": "TokenVault",
  "abi": [
    {
      "inputs": [
        {
          "internalType": "address",
          "name": "_settings",
          "type": "address"
        }
      ],
      "stateMutability": "nonpayable",
      "type": "constructor"
    },
    {
      "anonymous": false,
      "inputs": [
        {
          "indexed": true,
          "internalType": "address",
          "name": "owner",
          "type": "address"
        },
        {
          "indexed": true,
          "internalType": "address",
          "name": "spender",
          "type": "address"
        },
        {
          "indexed": false,
          "internalType": "uint256",
          "name": "value",
          "type": "uint256"
        }
      ],
      "name": "Approval",
      "type": "event"
    },
    {
      "anonymous": false,
      "inputs": [
        {
          "indexed": true,
          "internalType": "address",
          "name": "buyer",
          "type": "address"
        },
        {
          "indexed": false,
          "internalType": "uint256",
          "name": "price",
          "type": "uint256"
        }
      ],
      "name": "Bid",
      "type": "event"
    },
    {
      "anonymous": false,
      "inputs": [
        {
          "indexed": true,
          "internalType": "address",
          "name": "owner",
          "type": "address"
        },
        {
          "indexed": false,
          "internalType": "uint256",
          "name": "shares",
          "type": "uint256"
        }
      ],
      "name": "Cash",
      "type": "event"
    },
    {
      "anonymous": false,
      "inputs": [
        {
          "indexed": false,
          "internalType": "uint8",
          "name": "version",
          "type": "uint8"
        }
      ],
      "name": "Initialized",
      "type": "event"
    },
    {
      "anonymous": false,
      "inputs": [
        {
          "indexed": true,
          "internalType": "address",
          "name": "user",
          "type": "address"
        },
        {
          "indexed": false,
          "internalType": "uint256",
          "name": "price",
          "type": "uint256"
        }
      ],
      "name": "PriceUpdate",
      "type": "event"
    },
    {
      "anonymous": false,
      "inputs": [
        {
          "indexed": true,
          "internalType": "address",
          "name": "redeemer",
          "type": "address"
        }
      ],
      "name": "Redeem",
      "type": "event"
    },
    {
      "anonymous": false,
      "inputs": [
        {
          "indexed": true,
          "internalType": "address",
          "name": "buyer",
          "type": "address"
        },
        {
          "indexed": false,
          "internalType": "uint256",
          "name": "price",
          "type": "uint256"
        }
      ],
      "name": "Start",
      "type": "event"
    },
    {
      "anonymous": false,
      "inputs": [
        {
          "indexed": true,
          "internalType": "address",
          "name": "from",
          "type": "address"
        },
        {
          "indexed": true,
          "internalType": "address",
          "name": "to",
          "type": "address"
        },
        {
          "indexed": false,
          "internalType": "uint256",
          "name": "value",
          "type": "uint256"
        }
      ],
      "name": "Transfer",
      "type": "event"
    },
    {
      "anonymous": false,
      "inputs": [
        {
          "indexed": true,
          "internalType": "address",
          "name": "buyer",
          "type": "address"
        },
        {
          "indexed": false,
          "internalType": "uint256",
          "name": "price",
          "type": "uint256"
        }
      ],
      "name": "Won",
      "type": "event"
    },
    {
      "inputs": [
        {
          "internalType": "address",
          "name": "owner",
          "type": "address"
        },
        {
          "internalType": "address",
          "name": "spender",
          "type": "address"
        }
      ],
      "name": "allowance",
      "outputs": [
        {
          "internalType": "uint256",
          "name": "",
          "type": "uint256"
        }
      ],
      "stateMutability": "view",
      "type": "function"
    },
    {
      "inputs": [
        {
          "internalType": "address",
          "name": "spender",
          "type": "address"
        },
        {
          "internalType": "uint256",
          "name": "amount",
          "type": "uint256"
        }
      ],
      "name": "approve",
      "outputs": [
        {
          "internalType": "bool",
          "name": "",
          "type": "bool"
        }
      ],
      "stateMutability": "nonpayable",
      "type": "function"
    },
    {
      "inputs": [],
      "name": "auctionEnd",
      "outputs": [
        {
          "internalType": "uint256",
          "name": "",
          "type": "uint256"
        }
      ],
      "stateMutability": "view",
      "type": "function"
    },
    {
      "inputs": [],
      "name": "auctionLength",
      "outputs": [
        {
          "internalType": "uint256",
          "name": "",
          "type": "uint256"
        }
      ],
      "stateMutability": "view",
      "type": "function"
    },
    {
      "inputs": [],
      "name": "auctionState",
      "outputs": [
        {
          "internalType": "enum TokenVault.State",
          "name": "",
          "type": "uint8"
        }
      ],
      "stateMutability": "view",
      "type": "function"
    },
    {
      "inputs": [
        {
          "internalType": "address",
          "name": "account",
          "type": "address"
        }
      ],
      "name": "balanceOf",
      "outputs": [
        {
          "internalType": "uint256",
          "name": "",
          "type": "uint256"
        }
      ],
      "stateMutability": "view",
      "type": "function"
    },
    {
      "inputs": [],
      "name": "curator",
      "outputs": [
        {
          "internalType": "address",
          "name": "",
          "type": "address"
        }
      ],
      "stateMutability": "view",
      "type": "function"
    },
    {
      "inputs": [],
      "name": "decimals",
      "outputs": [
        {
          "internalType": "uint8",
          "name": "",
          "type": "uint8"
        }
      ],
      "stateMutability": "view",
      "type": "function"
    },
    {
      "inputs": [
        {
          "internalType": "address",
          "name": "spender",
          "type": "address"
        },
        {
          "internalType": "uint256",
          "name": "subtractedValue",
          "type": "uint256"
        }
      ],
      "name": "decreaseAllowance",
      "outputs": [
        {
          "internalType": "bool",
          "name": "",
          "type": "bool"
        }
      ],
      "stateMutability": "nonpayable",
      "type": "function"
    },
    {
      "inputs": [],
      "name": "fee",
      "outputs": [
        {
          "internalType": "uint256",
          "name": "",
          "type": "uint256"
        }
      ],
      "stateMutability": "view",
      "type": "function"
    },
    {
      "inputs": [],
      "name": "id",
      "outputs": [
        {
          "internalType": "uint256",
          "name": "",
          "type": "uint256"
        }
      ],
      "stateMutability": "view",
      "type": "function"
    },
    {
      "inputs": [
        {
          "internalType": "address",
          "name": "spender",
          "type": "address"
        },
        {
          "internalType": "uint256",
          "name": "addedValue",
          "type": "uint256"
        }
      ],
      "name": "increaseAllowance",
      "outputs": [
        {
          "internalType": "bool",
          "name": "",
          "type": "bool"
        }
      ],
      "stateMutability": "nonpayable",
      "type": "function"
    },
    {
      "inputs": [],
      "name": "lastClaimed",
      "outputs": [
        {
          "internalType": "uint256",
          "name": "",
          "type": "uint256"
        }
      ],
      "stateMutability": "view",
      "type": "function"
    },
    {
      "inputs": [],
      "name": "livePrice",
      "outputs": [
        {
          "internalType": "uint256",
          "name": "",
          "type": "uint256"
        }
      ],
      "stateMutability": "view",
      "type": "function"
    },
    {
      "inputs": [],
      "name": "logic",
      "outputs": [
        {
          "internalType": "address",
          "name": "",
          "type": "address"
        }
      ],
      "stateMutability": "view",
      "type": "function"
    },
    {
      "inputs": [],
      "name": "name",
      "outputs": [
        {
          "internalType": "string",
          "name": "",
          "type": "string"
        }
      ],
      "stateMutability": "view",
      "type": "function"
    },
    {
      "inputs": [
        {
          "internalType": "address",
          "name": "",
          "type": "address"
        },
        {
          "internalType": "address",
          "name": "",
          "type": "address"
        },
        {
          "internalType": "uint256",
          "name": "",
          "type": "uint256"
        },
        {
          "internalType": "bytes",
          "name": "",
          "type": "bytes"
        }
      ],
      "name": "onERC721Received",
      "outputs": [
        {
          "internalType": "bytes4",
          "name": "",
          "type": "bytes4"
        }
      ],
      "stateMutability": "nonpayable",
      "type": "function"
    },
    {
      "inputs": [],
      "name": "reserveTotal",
      "outputs": [
        {
          "internalType": "uint256",
          "name": "",
          "type": "uint256"
        }
      ],
      "stateMutability": "view",
      "type": "function"
    },
    {
      "inputs": [],
      "name": "settings",
      "outputs": [
        {
          "internalType": "address",
          "name": "",
          "type": "address"
        }
      ],
      "stateMutability": "view",
      "type": "function"
    },
    {
      "inputs": [],
      "name": "symbol",
      "outputs": [
        {
          "internalType": "string",
          "name": "",
          "type": "string"
        }
      ],
      "stateMutability": "view",
      "type": "function"
    },
    {
      "inputs": [],
      "name": "token",
      "outputs": [
        {
          "internalType": "address",
          "name": "",
          "type": "address"
        }
      ],
      "stateMutability": "view",
      "type": "function"
    },
    {
      "inputs": [],
      "name": "totalSupply",
      "outputs": [
        {
          "internalType": "uint256",
          "name": "",
          "type": "uint256"
        }
      ],
      "stateMutability": "view",
      "type": "function"
    },
    {
      "inputs": [
        {
          "internalType": "address",
          "name": "to",
          "type": "address"
        },
        {
          "internalType": "uint256",
          "name": "amount",
          "type": "uint256"
        }
      ],
      "name": "transfer",
      "outputs": [
        {
          "internalType": "bool",
          "name": "",
          "type": "bool"
        }
      ],
      "stateMutability": "nonpayable",
      "type": "function"
    },
    {
      "inputs": [
        {
          "internalType": "address",
          "name": "from",
          "type": "address"
        },
        {
          "internalType": "address",
          "name": "to",
          "type": "address"
        },
        {
          "internalType": "uint256",
          "name": "amount",
          "type": "uint256"
        }
      ],
      "name": "transferFrom",
      "outputs": [
        {
          "internalType": "bool",
          "name": "",
          "type": "bool"
        }
      ],
      "stateMutability": "nonpayable",
      "type": "function"
    },
    {
      "inputs": [
        {
          "internalType": "address",
          "name": "",
          "type": "address"
        }
      ],
      "name": "userPrices",
      "outputs": [
        {
          "internalType": "uint256",
          "name": "",
          "type": "uint256"
        }
      ],
      "stateMutability": "view",
      "type": "function"
    },
    {
      "inputs": [],
      "name": "vaultClosed",
      "outputs": [
        {
          "internalType": "bool",
          "name": "",
          "type": "bool"
        }
      ],
      "stateMutability": "view",
      "type": "function"
    },
    {
      "inputs": [],
      "name": "votingTokens",
      "outputs": [
        {
          "internalType": "uint256",
          "name": "",
          "type": "uint256"
        }
      ],
      "stateMutability": "view",
      "type": "function"
    },
    {
      "inputs": [],
      "name": "weth",
      "outputs": [
        {
          "internalType": "address",
          "name": "",
          "type": "address"
        }
      ],
      "stateMutability": "view",
      "type": "function"
    },
    {
      "inputs": [],
      "name": "winning",
      "outputs": [
        {
          "internalType": "address payable",
          "name": "",
          "type": "address"
        }
      ],
      "stateMutability": "view",
      "type": "function"
    },
    {
      "inputs": [
        {
          "internalType": "address",
          "name": "_curator",
          "type": "address"
        },
        {
          "internalType": "address",
          "name": "_token",
          "type": "address"
        },
        {
          "internalType": "uint256",
          "name": "_id",
          "type": "uint256"
        },
        {
          "internalType": "uint256",
          "name": "_supply",
          "type": "uint256"
        },
        {
          "internalType": "uint256",
          "name": "_listPrice",
          "type": "uint256"
        },
        {
          "internalType": "uint256",
          "name": "_fee",
          "type": "uint256"
        },
        {
          "internalType": "string",
          "name": "_name",
          "type": "string"
        },
        {
          "internalType": "string",
          "name": "_symbol",
          "type": "string"
        }
      ],
      "name": "initialize",
      "outputs": [],
      "stateMutability": "nonpayable",
      "type": "function"
    },
    {
      "inputs": [],
      "name": "reservePrice",
      "outputs": [
        {
          "internalType": "uint256",
          "name": "",
          "type": "uint256"
        }
      ],
      "stateMutability": "view",
      "type": "function"
    },
    {
      "inputs": [
        {
          "internalType": "address",
          "name": "_curator",
          "type": "address"
        }
      ],
      "name": "kickCurator",
      "outputs": [],
      "stateMutability": "nonpayable",
      "type": "function"
    },
    {
      "inputs": [
        {
          "internalType": "address",
          "name": "_user",
          "type": "address"
        }
      ],
      "name": "removeReserve",
      "outputs": [],
      "stateMutability": "nonpayable",
      "type": "function"
    },
    {
      "inputs": [
        {
          "internalType": "address",
          "name": "_curator",
          "type": "address"
        }
      ],
      "name": "updateCurator",
      "outputs": [],
      "stateMutability": "nonpayable",
      "type": "function"
    },
    {
      "inputs": [
        {
          "internalType": "uint256",
          "name": "_length",
          "type": "uint256"
        }
      ],
      "name": "updateAuctionLength",
      "outputs": [],
      "stateMutability": "nonpayable",
      "type": "function"
    },
    {
      "inputs": [
        {
          "internalType": "uint256",
          "name": "_fee",
          "type": "uint256"
        }
      ],
      "name": "updateFee",
      "outputs": [],
      "stateMutability": "nonpayable",
      "type": "function"
    },
    {
      "inputs": [],
      "name": "claimFees",
      "outputs": [],
      "stateMutability": "nonpayable",
      "type": "function"
    },
    {
      "inputs": [
        {
          "internalType": "uint256",
          "name": "_new",
          "type": "uint256"
        }
      ],
      "name": "updateUserPrice",
      "outputs": [],
      "stateMutability": "nonpayable",
      "type": "function"
    },
    {
      "inputs": [],
      "name": "start",
      "outputs": [],
      "stateMutability": "payable",
      "type": "function"
    },
    {
      "inputs": [],
      "name": "bid",
      "outputs": [],
      "stateMutability": "payable",
      "type": "function"
    },
    {
      "inputs": [],
      "name": "end",
      "outputs": [],
      "stateMutability": "nonpayable",
      "type": "function"
    },
    {
      "inputs": [],
      "name": "redeem",
      "outputs": [],
      "stateMutability": "nonpayable",
      "type": "function"
    },
    {
      "inputs": [],
      "name": "cash",
      "outputs": [],
      "stateMutability": "nonpayable",
      "type": "function"
    }
  ],
  "bytecode": "0x60806040523480156200001157600080fd5b5060405162005d2238038062005d228339818101604052810190620000379190620000e9565b80609f60006101000a81548173ffffffffffffffffffffffffffffffffffffffff021916908373ffffffffffffffffffffffffffffffffffffffff160217905550506200011b565b600080fd5b600073ffffffffffffffffffffffffffffffffffffffff82169050919050565b6000620000b18262000084565b9050919050565b620000c381620000a4565b8114620000cf57600080fd5b50565b600081519050620000e381620000b8565b92915050565b6000602082840312156200010257620001016200007f565b5b60006200011284828501620000d2565b91505092915050565b615bf7806200012b6000396000f3fe608060405260043610610279576000357c01000000000000000000000000000000000000000000000000000000009004806380436fe011610161578063be9a6555116100d3578063dd62ed3e11610097578063dd62ed3e146108b9578063ddca3f43146108f6578063e06174e414610921578063e66f53b71461094c578063efbe1c1c14610977578063fc0c546a1461098e57610279565b8063be9a655514610805578063c91de6491461080f578063d294f0931461084c578063d7dfa0dd14610863578063db2e1eed1461088e57610279565b80639a4e6d34116101255780639a4e6d34146106f3578063a457c2d71461071e578063a9059cbb1461075b578063adc1b95614610798578063af640d0f146107c3578063be040fb0146107ee57610279565b806380436fe014610634578063853a1b901461065d5780639012c4a81461068857806395d89b41146106b1578063961be391146106dc57610279565b8063313ce567116101fa578063626fb2f0116101be578063626fb2f0146105245780636a7757141461054d5780636da84e6c1461057657806370a08231146105a15780637b5581ed146105de5780637fb450991461060957610279565b8063313ce5671461043b578063325c25a21461046657806339509351146104915780633fc8cef3146104ce5780635c9920fc146104f957610279565b80631998aeef116102415780631998aeef1461037757806323b872dd146103815780632a24f46c146103be5780632a44f120146103e95780632bf33bd91461041257610279565b806306fdde031461027e578063095ea7b3146102a95780630c6a62dd146102e6578063150b7a021461030f57806318160ddd1461034c575b600080fd5b34801561028a57600080fd5b506102936109b9565b6040516102a09190614019565b60405180910390f35b3480156102b557600080fd5b506102d060048036038101906102cb91906140e3565b610a4b565b6040516102dd919061413e565b60405180910390f35b3480156102f257600080fd5b5061030d60048036038101906103089190614159565b610a6e565b005b34801561031b57600080fd5b50610336600480360381019061033191906142bb565b610b42565b6040516103439190614379565b60405180910390f35b34801561035857600080fd5b50610361610b72565b60405161036e91906143a3565b60405180910390f35b61037f610b7c565b005b34801561038d57600080fd5b506103a860048036038101906103a391906143be565b610e4c565b6040516103b5919061413e565b60405180910390f35b3480156103ca57600080fd5b506103d3610e7b565b6040516103e091906143a3565b60405180910390f35b3480156103f557600080fd5b50610410600480360381019061040b9190614159565b610e81565b005b34801561041e57600080fd5b5061043960048036038101906104349190614411565b610fdf565b005b34801561044757600080fd5b50610450611224565b60405161045d919061445a565b60405180910390f35b34801561047257600080fd5b5061047b61122d565b60405161048891906143a3565b60405180910390f35b34801561049d57600080fd5b506104b860048036038101906104b391906140e3565b611233565b6040516104c5919061413e565b60405180910390f35b3480156104da57600080fd5b506104e361126a565b6040516104f09190614484565b60405180910390f35b34801561050557600080fd5b5061050e611282565b60405161051b919061413e565b60405180910390f35b34801561053057600080fd5b5061054b60048036038101906105469190614540565b611295565b005b34801561055957600080fd5b50610574600480360381019061056f9190614411565b61147e565b005b34801561058257600080fd5b5061058b611bc8565b60405161059891906143a3565b60405180910390f35b3480156105ad57600080fd5b506105c860048036038101906105c39190614159565b611bce565b6040516105d591906143a3565b60405180910390f35b3480156105ea57600080fd5b506105f3611c17565b60405161060091906143a3565b60405180910390f35b34801561061557600080fd5b5061061e611c1d565b60405161062b91906146a5565b60405180910390f35b34801561064057600080fd5b5061065b60048036038101906106569190614159565b611c30565b005b34801561066957600080fd5b50610672611f2a565b60405161067f91906146e1565b60405180910390f35b34801561069457600080fd5b506106af60048036038101906106aa9190614411565b611f50565b005b3480156106bd57600080fd5b506106c66120e3565b6040516106d39190614019565b60405180910390f35b3480156106e857600080fd5b506106f1612175565b005b3480156106ff57600080fd5b506107086122da565b60405161071591906143a3565b60405180910390f35b34801561072a57600080fd5b50610745600480360381019061074091906140e3565b6122e0565b604051610752919061413e565b60405180910390f35b34801561076757600080fd5b50610782600480360381019061077d91906140e3565b612357565b60405161078f919061413e565b60405180910390f35b3480156107a457600080fd5b506107ad61237a565b6040516107ba91906143a3565b60405180910390f35b3480156107cf57600080fd5b506107d8612380565b6040516107e591906143a3565b60405180910390f35b3480156107fa57600080fd5b50610803612386565b005b61080d61252c565b005b34801561081b57600080fd5b5061083660048036038101906108319190614159565b6127d5565b60405161084391906143a3565b60405180910390f35b34801561085857600080fd5b506108616127ed565b005b34801561086f57600080fd5b506108786127f7565b6040516108859190614484565b60405180910390f35b34801561089a57600080fd5b506108a361281d565b6040516108b091906143a3565b60405180910390f35b3480156108c557600080fd5b506108e060048036038101906108db91906146fc565b612845565b6040516108ed91906143a3565b60405180910390f35b34801561090257600080fd5b5061090b6128cc565b60405161091891906143a3565b60405180910390f35b34801561092d57600080fd5b506109366128d2565b6040516109439190614484565b60405180910390f35b34801561095857600080fd5b506109616128f8565b60405161096e9190614484565b60405180910390f35b34801561098357600080fd5b5061098c61291e565b005b34801561099a57600080fd5b506109a3612b51565b6040516109b09190614484565b60405180910390f35b6060603680546109c89061476b565b80601f01602080910402602001604051908101604052809291908181526020018280546109f49061476b565b8015610a415780601f10610a1657610100808354040283529160200191610a41565b820191906000526020600020905b815481529060010190602001808311610a2457829003601f168201915b5050505050905090565b600080610a56612b77565b9050610a63818585612b7f565b600191505092915050565b60a060009054906101000a900473ffffffffffffffffffffffffffffffffffffffff1673ffffffffffffffffffffffffffffffffffffffff163373ffffffffffffffffffffffffffffffffffffffff1614610afe576040517f08c379a0000000000000000000000000000000000000000000000000000000008152600401610af5906147e8565b60405180910390fd5b8060a060006101000a81548173ffffffffffffffffffffffffffffffffffffffff021916908373ffffffffffffffffffffffffffffffffffffffff16021790555050565b600063150b7a027c0100000000000000000000000000000000000000000000000000000000029050949350505050565b6000603554905090565b60016003811115610b9057610b8f61462e565b5b609e60149054906101000a900460ff166003811115610bb257610bb161462e565b5b14610bf2576040517f08c379a0000000000000000000000000000000000000000000000000000000008152600401610be990614854565b60405180910390fd5b60006103e8609f60009054906101000a900473ffffffffffffffffffffffffffffffffffffffff1673ffffffffffffffffffffffffffffffffffffffff16637c513c0f6040518163ffffffff167c01000000000000000000000000000000000000000000000000000000000281526004016020604051808303816000875af1158015610c82573d6000803e3d6000fd5b505050506040513d601f19601f82011682018060405250810190610ca69190614889565b610cb091906148e5565b905080609d54610cc0919061493b565b6103e834610cce919061493b565b1015610d0f576040517f08c379a0000000000000000000000000000000000000000000000000000000008152600401610d06906149e1565b60405180910390fd5b609a544210610d53576040517f08c379a0000000000000000000000000000000000000000000000000000000008152600401610d4a90614a4d565b60405180910390fd5b61038442609a54610d649190614a6d565b11610d8557610384609a6000828254610d7d91906148e5565b925050819055505b610db3609e60009054906101000a900473ffffffffffffffffffffffffffffffffffffffff16609d54612d48565b34609d8190555033609e60006101000a81548173ffffffffffffffffffffffffffffffffffffffff021916908373ffffffffffffffffffffffffffffffffffffffff1602179055503373ffffffffffffffffffffffffffffffffffffffff167fe684a55f31b79eca403df938249029212a5925ec6be8012e099b45bc1019e5d234604051610e4191906143a3565b60405180910390a250565b600080610e57612b77565b9050610e64858285612f35565b610e6f858585612fc1565b60019150509392505050565b609a5481565b609f60009054906101000a900473ffffffffffffffffffffffffffffffffffffffff1673ffffffffffffffffffffffffffffffffffffffff16638da5cb5b6040518163ffffffff167c0100000000000000000000000000000000000000000000000000000000028152600401602060405180830381865afa158015610f0a573d6000803e3d6000fd5b505050506040513d601f19601f82011682018060405250810190610f2e9190614ab6565b73ffffffffffffffffffffffffffffffffffffffff163373ffffffffffffffffffffffffffffffffffffffff1614610f9b576040517f08c379a0000000000000000000000000000000000000000000000000000000008152600401610f9290614b2f565b60405180910390fd5b8060a060006101000a81548173ffffffffffffffffffffffffffffffffffffffff021916908373ffffffffffffffffffffffffffffffffffffffff16021790555050565b60a060009054906101000a900473ffffffffffffffffffffffffffffffffffffffff1673ffffffffffffffffffffffffffffffffffffffff163373ffffffffffffffffffffffffffffffffffffffff161461106f576040517f08c379a0000000000000000000000000000000000000000000000000000000008152600401611066906147e8565b60405180910390fd5b609f60009054906101000a900473ffffffffffffffffffffffffffffffffffffffff1673ffffffffffffffffffffffffffffffffffffffff1663a0b335e36040518163ffffffff167c01000000000000000000000000000000000000000000000000000000000281526004016020604051808303816000875af11580156110fa573d6000803e3d6000fd5b505050506040513d601f19601f8201168201806040525081019061111e9190614889565b81101580156111db5750609f60009054906101000a900473ffffffffffffffffffffffffffffffffffffffff1673ffffffffffffffffffffffffffffffffffffffff16630e519ef96040518163ffffffff167c01000000000000000000000000000000000000000000000000000000000281526004016020604051808303816000875af11580156111b3573d6000803e3d6000fd5b505050506040513d601f19601f820116820180604052508101906111d79190614889565b8111155b61121a576040517f08c379a000000000000000000000000000000000000000000000000000000000815260040161121190614b9b565b60405180910390fd5b80609b8190555050565b60006012905090565b609b5481565b60008061123e612b77565b905061125f8185856112508589612845565b61125a91906148e5565b612b7f565b600191505092915050565b73c02aaa39b223fe8d0a0e5c4f27ead9083c756cc281565b60a360009054906101000a900460ff1681565b60006112a16001613243565b905080156112c5576001600060016101000a81548160ff0219169083151502179055505b6112cf8383613333565b6112d7613390565b87609860006101000a81548173ffffffffffffffffffffffffffffffffffffffff021916908373ffffffffffffffffffffffffffffffffffffffff16021790555086609981905550858561132b919061493b565b609c8190555062093a80609b819055508860a060006101000a81548173ffffffffffffffffffffffffffffffffffffffff021916908373ffffffffffffffffffffffffffffffffffffffff1602179055508360a1819055504260a28190555060008514611398578561139b565b60005b60a4819055506000609e60146101000a81548160ff021916908360038111156113c7576113c661462e565b5b02179055506113d689876133e1565b8460a560008b73ffffffffffffffffffffffffffffffffffffffff1673ffffffffffffffffffffffffffffffffffffffff1681526020019081526020016000208190555080156114735760008060016101000a81548160ff0219169083151502179055507f7f26b83ff96e1f2b6a682f133852f6798a09c465da95921460cefb3847402498600160405161146a9190614c00565b60405180910390a15b505050505050505050565b600060038111156114925761149161462e565b5b609e60149054906101000a900460ff1660038111156114b4576114b361462e565b5b146114f4576040517f08c379a00000000000000000000000000000000000000000000000000000000081526004016114eb90614c8d565b60405180910390fd5b600060a560003373ffffffffffffffffffffffffffffffffffffffff1673ffffffffffffffffffffffffffffffffffffffff16815260200190815260200160002054905080820361157a576040517f08c379a000000000000000000000000000000000000000000000000000000000815260040161157190614cf9565b60405180910390fd5b600061158533611bce565b9050600060a454036115af578060a48190555082816115a4919061493b565b609c81905550611b31565b60a454811480156115c1575060008214155b156115dd5782816115d2919061493b565b609c81905550611b30565b6000820361185a57600060a454609c546115f79190614d48565b905060006103e8609f60009054906101000a900473ffffffffffffffffffffffffffffffffffffffff1673ffffffffffffffffffffffffffffffffffffffff166309990a966040518163ffffffff167c01000000000000000000000000000000000000000000000000000000000281526004016020604051808303816000875af1158015611689573d6000803e3d6000fd5b505050506040513d601f19601f820116820180604052508101906116ad9190614889565b836116b8919061493b565b6116c29190614d48565b905080851015611707576040517f08c379a00000000000000000000000000000000000000000000000000000000081526004016116fe90614dc5565b60405180910390fd5b60006103e8609f60009054906101000a900473ffffffffffffffffffffffffffffffffffffffff1673ffffffffffffffffffffffffffffffffffffffff16635410bfc96040518163ffffffff167c01000000000000000000000000000000000000000000000000000000000281526004016020604051808303816000875af1158015611797573d6000803e3d6000fd5b505050506040513d601f19601f820116820180604052508101906117bb9190614889565b846117c6919061493b565b6117d09190614d48565b905080861115611815576040517f08c379a000000000000000000000000000000000000000000000000000000000815260040161180c90614e31565b60405180910390fd5b8360a4600082825461182791906148e5565b92505081905550858461183a919061493b565b609c600082825461184b91906148e5565b92505081905550505050611b2f565b600083036118a4578060a460008282546118749190614a6d565b925050819055508181611887919061493b565b609c60008282546118989190614a6d565b92505081905550611b2e565b60008160a4546118b49190614a6d565b82846118c0919061493b565b609c546118cd9190614a6d565b6118d79190614d48565b905060006103e8609f60009054906101000a900473ffffffffffffffffffffffffffffffffffffffff1673ffffffffffffffffffffffffffffffffffffffff166309990a966040518163ffffffff167c01000000000000000000000000000000000000000000000000000000000281526004016020604051808303816000875af1158015611969573d6000803e3d6000fd5b505050506040513d601f19601f8201168201806040525081019061198d9190614889565b83611998919061493b565b6119a29190614d48565b9050808510156119e7576040517f08c379a00000000000000000000000000000000000000000000000000000000081526004016119de90614dc5565b60405180910390fd5b60006103e8609f60009054906101000a900473ffffffffffffffffffffffffffffffffffffffff1673ffffffffffffffffffffffffffffffffffffffff16635410bfc96040518163ffffffff167c01000000000000000000000000000000000000000000000000000000000281526004016020604051808303816000875af1158015611a77573d6000803e3d6000fd5b505050506040513d601f19601f82011682018060405250810190611a9b9190614889565b84611aa6919061493b565b611ab09190614d48565b905080861115611af5576040517f08c379a0000000000000000000000000000000000000000000000000000000008152600401611aec90614e31565b60405180910390fd5b8484611b01919061493b565b8685611b0d919061493b565b609c54611b1a91906148e5565b611b249190614a6d565b609c819055505050505b5b5b5b8260a560003373ffffffffffffffffffffffffffffffffffffffff1673ffffffffffffffffffffffffffffffffffffffff168152602001908152602001600020819055503373ffffffffffffffffffffffffffffffffffffffff167f64e6e7bd72b853c4e62fd6ceaca05a104700c70a4cb567c75c7f2242ba7f037c84604051611bbb91906143a3565b60405180910390a2505050565b609d5481565b6000603360008373ffffffffffffffffffffffffffffffffffffffff1673ffffffffffffffffffffffffffffffffffffffff168152602001908152602001600020549050919050565b609c5481565b609e60149054906101000a900460ff1681565b609f60009054906101000a900473ffffffffffffffffffffffffffffffffffffffff1673ffffffffffffffffffffffffffffffffffffffff16638da5cb5b6040518163ffffffff167c0100000000000000000000000000000000000000000000000000000000028152600401602060405180830381865afa158015611cb9573d6000803e3d6000fd5b505050506040513d601f19601f82011682018060405250810190611cdd9190614ab6565b73ffffffffffffffffffffffffffffffffffffffff163373ffffffffffffffffffffffffffffffffffffffff1614611d4a576040517f08c379a0000000000000000000000000000000000000000000000000000000008152600401611d4190614e9d565b60405180910390fd5b60006003811115611d5e57611d5d61462e565b5b609e60149054906101000a900460ff166003811115611d8057611d7f61462e565b5b14611dc0576040517f08c379a0000000000000000000000000000000000000000000000000000000008152600401611db790614c8d565b60405180910390fd5b600060a560008373ffffffffffffffffffffffffffffffffffffffff1673ffffffffffffffffffffffffffffffffffffffff16815260200190815260200160002054905080600003611e47576040517f08c379a0000000000000000000000000000000000000000000000000000000008152600401611e3e90614cf9565b60405180910390fd5b6000611e5283611bce565b90508060a46000828254611e669190614a6d565b925050819055508181611e79919061493b565b609c6000828254611e8a9190614a6d565b92505081905550600060a560008573ffffffffffffffffffffffffffffffffffffffff1673ffffffffffffffffffffffffffffffffffffffff168152602001908152602001600020819055508273ffffffffffffffffffffffffffffffffffffffff167f64e6e7bd72b853c4e62fd6ceaca05a104700c70a4cb567c75c7f2242ba7f037c6000604051611f1d9190614ef8565b60405180910390a2505050565b609e60009054906101000a900473ffffffffffffffffffffffffffffffffffffffff1681565b60a060009054906101000a900473ffffffffffffffffffffffffffffffffffffffff1673ffffffffffffffffffffffffffffffffffffffff163373ffffffffffffffffffffffffffffffffffffffff1614611fe0576040517f08c379a0000000000000000000000000000000000000000000000000000000008152600401611fd7906147e8565b60405180910390fd5b609f60009054906101000a900473ffffffffffffffffffffffffffffffffffffffff1673ffffffffffffffffffffffffffffffffffffffff16638a364bc16040518163ffffffff167c01000000000000000000000000000000000000000000000000000000000281526004016020604051808303816000875af115801561206b573d6000803e3d6000fd5b505050506040513d601f19601f8201168201806040525081019061208f9190614889565b8111156120d1576040517f08c379a00000000000000000000000000000000000000000000000000000000081526004016120c890614f85565b60405180910390fd5b6120d9613541565b8060a18190555050565b6060603780546120f29061476b565b80601f016020809104026020016040519081016040528092919081815260200182805461211e9061476b565b801561216b5780601f106121405761010080835404028352916020019161216b565b820191906000526020600020905b81548152906001019060200180831161214e57829003601f168201915b5050505050905090565b600260038111156121895761218861462e565b5b609e60149054906101000a900460ff1660038111156121ab576121aa61462e565b5b146121eb576040517f08c379a00000000000000000000000000000000000000000000000000000000081526004016121e290614ff1565b60405180910390fd5b60006121f633611bce565b90506000811161223b576040517f08c379a00000000000000000000000000000000000000000000000000000000081526004016122329061505d565b60405180910390fd5b6000612245610b72565b3073ffffffffffffffffffffffffffffffffffffffff163183612268919061493b565b6122729190614d48565b905061227e3383613803565b61228833826139db565b3373ffffffffffffffffffffffffffffffffffffffff167f730831a1e4aa2d187ddd8e03d7beeac760a3927da5f112d645e0f8df7494b367826040516122ce91906143a3565b60405180910390a25050565b60a45481565b6000806122eb612b77565b905060006122f98286612845565b90508381101561233e576040517f08c379a0000000000000000000000000000000000000000000000000000000008152600401612335906150ef565b60405180910390fd5b61234b8286868403612b7f565b60019250505092915050565b600080612362612b77565b905061236f818585612fc1565b600191505092915050565b60a25481565b60995481565b6000600381111561239a5761239961462e565b5b609e60149054906101000a900460ff1660038111156123bc576123bb61462e565b5b146123fc576040517f08c379a00000000000000000000000000000000000000000000000000000000081526004016123f39061515b565b60405180910390fd5b61240d33612408610b72565b613803565b609860009054906101000a900473ffffffffffffffffffffffffffffffffffffffff1673ffffffffffffffffffffffffffffffffffffffff166323b872dd30336099546040518463ffffffff167c010000000000000000000000000000000000000000000000000000000002815260040161248a9392919061517b565b600060405180830381600087803b1580156124a457600080fd5b505af11580156124b8573d6000803e3d6000fd5b505050506003609e60146101000a81548160ff021916908360038111156124e2576124e161462e565b5b02179055503373ffffffffffffffffffffffffffffffffffffffff167fd1b5ea7fe0f1c2fa09d49c2aa9b2200664ba57a734f1d95481d95b7f99af991c60405160405180910390a2565b600060038111156125405761253f61462e565b5b609e60149054906101000a900460ff1660038111156125625761256161462e565b5b146125a2576040517f08c379a0000000000000000000000000000000000000000000000000000000008152600401612599906151fe565b60405180910390fd5b6125aa61281d565b3410156125ec576040517f08c379a00000000000000000000000000000000000000000000000000000000081526004016125e39061526a565b60405180910390fd5b6125f4610b72565b609f60009054906101000a900473ffffffffffffffffffffffffffffffffffffffff1673ffffffffffffffffffffffffffffffffffffffff166332977c736040518163ffffffff167c01000000000000000000000000000000000000000000000000000000000281526004016020604051808303816000875af115801561267f573d6000803e3d6000fd5b505050506040513d601f19601f820116820180604052508101906126a39190614889565b6126ad919061493b565b6103e860a4546126bd919061493b565b10156126fe576040517f08c379a00000000000000000000000000000000000000000000000000000000081526004016126f5906152d6565b60405180910390fd5b609b544261270c91906148e5565b609a819055506001609e60146101000a81548160ff021916908360038111156127385761273761462e565b5b021790555034609d8190555033609e60006101000a81548173ffffffffffffffffffffffffffffffffffffffff021916908373ffffffffffffffffffffffffffffffffffffffff1602179055503373ffffffffffffffffffffffffffffffffffffffff167fcfb9c5312b25ec7b809d61e638df25f749eae5d5c25399e1c93d1d319bfd5821346040516127cb91906143a3565b60405180910390a2565b60a56020528060005260406000206000915090505481565b6127f5613541565b565b609760009054906101000a900473ffffffffffffffffffffffffffffffffffffffff1681565b60008060a4541461283d5760a454609c546128389190614d48565b612840565b60005b905090565b6000603460008473ffffffffffffffffffffffffffffffffffffffff1673ffffffffffffffffffffffffffffffffffffffff16815260200190815260200160002060008373ffffffffffffffffffffffffffffffffffffffff1673ffffffffffffffffffffffffffffffffffffffff16815260200190815260200160002054905092915050565b60a15481565b609f60009054906101000a900473ffffffffffffffffffffffffffffffffffffffff1681565b60a060009054906101000a900473ffffffffffffffffffffffffffffffffffffffff1681565b600160038111156129325761293161462e565b5b609e60149054906101000a900460ff1660038111156129545761295361462e565b5b14612994576040517f08c379a000000000000000000000000000000000000000000000000000000000815260040161298b90615342565b60405180910390fd5b609a544210156129d9576040517f08c379a00000000000000000000000000000000000000000000000000000000081526004016129d0906153ae565b60405180910390fd5b6129e1613541565b609860009054906101000a900473ffffffffffffffffffffffffffffffffffffffff1673ffffffffffffffffffffffffffffffffffffffff166323b872dd30609e60009054906101000a900473ffffffffffffffffffffffffffffffffffffffff166099546040518463ffffffff167c0100000000000000000000000000000000000000000000000000000000028152600401612a8093929190615423565b600060405180830381600087803b158015612a9a57600080fd5b505af1158015612aae573d6000803e3d6000fd5b505050506002609e60146101000a81548160ff02191690836003811115612ad857612ad761462e565b5b0217905550609e60009054906101000a900473ffffffffffffffffffffffffffffffffffffffff1673ffffffffffffffffffffffffffffffffffffffff167f8b01f9dd0400d6a1e84369a5fb8f6033934856ffa8ebadd707dca302ab551695609d54604051612b4791906143a3565b60405180910390a2565b609860009054906101000a900473ffffffffffffffffffffffffffffffffffffffff1681565b600033905090565b600073ffffffffffffffffffffffffffffffffffffffff168373ffffffffffffffffffffffffffffffffffffffff1603612bee576040517f08c379a0000000000000000000000000000000000000000000000000000000008152600401612be5906154cc565b60405180910390fd5b600073ffffffffffffffffffffffffffffffffffffffff168273ffffffffffffffffffffffffffffffffffffffff1603612c5d576040517f08c379a0000000000000000000000000000000000000000000000000000000008152600401612c549061555e565b60405180910390fd5b80603460008573ffffffffffffffffffffffffffffffffffffffff1673ffffffffffffffffffffffffffffffffffffffff16815260200190815260200160002060008473ffffffffffffffffffffffffffffffffffffffff1673ffffffffffffffffffffffffffffffffffffffff168152602001908152602001600020819055508173ffffffffffffffffffffffffffffffffffffffff168373ffffffffffffffffffffffffffffffffffffffff167f8c5be1e5ebec7d5bd14f71427d1e84f3dd0314c0f7b2291e5b200ac8c7c3b92583604051612d3b91906143a3565b60405180910390a3505050565b73c02aaa39b223fe8d0a0e5c4f27ead9083c756cc273ffffffffffffffffffffffffffffffffffffffff1663d0e30db0826040518263ffffffff167c01000000000000000000000000000000000000000000000000000000000281526004016000604051808303818588803b158015612dc057600080fd5b505af1158015612dd4573d6000803e3d6000fd5b505050505073c02aaa39b223fe8d0a0e5c4f27ead9083c756cc273ffffffffffffffffffffffffffffffffffffffff1663a9059cbb8373c02aaa39b223fe8d0a0e5c4f27ead9083c756cc273ffffffffffffffffffffffffffffffffffffffff166370a08231306040518263ffffffff167c0100000000000000000000000000000000000000000000000000000000028152600401612e739190614484565b602060405180830381865afa158015612e90573d6000803e3d6000fd5b505050506040513d601f19601f82011682018060405250810190612eb49190614889565b6040518363ffffffff167c0100000000000000000000000000000000000000000000000000000000028152600401612eed92919061557e565b6020604051808303816000875af1158015612f0c573d6000803e3d6000fd5b505050506040513d601f19601f82011682018060405250810190612f3091906155d3565b505050565b6000612f418484612845565b90507fffffffffffffffffffffffffffffffffffffffffffffffffffffffffffffffff8114612fbb5781811015612fad576040517f08c379a0000000000000000000000000000000000000000000000000000000008152600401612fa49061564c565b60405180910390fd5b612fba8484848403612b7f565b5b50505050565b600073ffffffffffffffffffffffffffffffffffffffff168373ffffffffffffffffffffffffffffffffffffffff1603613030576040517f08c379a0000000000000000000000000000000000000000000000000000000008152600401613027906156de565b60405180910390fd5b600073ffffffffffffffffffffffffffffffffffffffff168273ffffffffffffffffffffffffffffffffffffffff160361309f576040517f08c379a000000000000000000000000000000000000000000000000000000000815260040161309690615770565b60405180910390fd5b6130aa838383613c39565b6000603360008573ffffffffffffffffffffffffffffffffffffffff1673ffffffffffffffffffffffffffffffffffffffff16815260200190815260200160002054905081811015613131576040517f08c379a000000000000000000000000000000000000000000000000000000000815260040161312890615802565b60405180910390fd5b818103603360008673ffffffffffffffffffffffffffffffffffffffff1673ffffffffffffffffffffffffffffffffffffffff1681526020019081526020016000208190555081603360008573ffffffffffffffffffffffffffffffffffffffff1673ffffffffffffffffffffffffffffffffffffffff16815260200190815260200160002060008282546131c691906148e5565b925050819055508273ffffffffffffffffffffffffffffffffffffffff168473ffffffffffffffffffffffffffffffffffffffff167fddf252ad1be2c89b69c2b068fc378daa952ba7f163c4a11628f55a4df523b3ef8460405161322a91906143a3565b60405180910390a361323d848484613e11565b50505050565b60008060019054906101000a900460ff16156132ba5760018260ff16148015613272575061327030613e16565b155b6132b1576040517f08c379a00000000000000000000000000000000000000000000000000000000081526004016132a890615894565b60405180910390fd5b6000905061332e565b8160ff1660008054906101000a900460ff1660ff161061330f576040517f08c379a000000000000000000000000000000000000000000000000000000000815260040161330690615894565b60405180910390fd5b816000806101000a81548160ff021916908360ff160217905550600190505b919050565b600060019054906101000a900460ff16613382576040517f08c379a000000000000000000000000000000000000000000000000000000000815260040161337990615926565b60405180910390fd5b61338c8282613e39565b5050565b600060019054906101000a900460ff166133df576040517f08c379a00000000000000000000000000000000000000000000000000000000081526004016133d690615926565b60405180910390fd5b565b600073ffffffffffffffffffffffffffffffffffffffff168273ffffffffffffffffffffffffffffffffffffffff1603613450576040517f08c379a000000000000000000000000000000000000000000000000000000000815260040161344790615992565b60405180910390fd5b61345c60008383613c39565b806035600082825461346e91906148e5565b9250508190555080603360008473ffffffffffffffffffffffffffffffffffffffff1673ffffffffffffffffffffffffffffffffffffffff16815260200190815260200160002060008282546134c491906148e5565b925050819055508173ffffffffffffffffffffffffffffffffffffffff16600073ffffffffffffffffffffffffffffffffffffffff167fddf252ad1be2c89b69c2b068fc378daa952ba7f163c4a11628f55a4df523b3ef8360405161352991906143a3565b60405180910390a361353d60008383613e11565b5050565b600260038111156135555761355461462e565b5b609e60149054906101000a900460ff1660038111156135775761357661462e565b5b036135b7576040517f08c379a00000000000000000000000000000000000000000000000000000000081526004016135ae90615a24565b60405180910390fd5b60006103e86135c4610b72565b60a1546135d1919061493b565b6135db9190614d48565b905060006301e13380826135ef9190614d48565b9050600060a254426136019190614a6d565b905060008282613611919061493b565b90506000609f60009054906101000a900473ffffffffffffffffffffffffffffffffffffffff1673ffffffffffffffffffffffffffffffffffffffff1663b3f006746040518163ffffffff167c01000000000000000000000000000000000000000000000000000000000281526004016020604051808303816000875af11580156136a0573d6000803e3d6000fd5b505050506040513d601f19601f820116820180604052508101906136c49190615a70565b90506000609f60009054906101000a900473ffffffffffffffffffffffffffffffffffffffff1673ffffffffffffffffffffffffffffffffffffffff16630ea90a126040518163ffffffff167c01000000000000000000000000000000000000000000000000000000000281526004016020604051808303816000875af1158015613753573d6000803e3d6000fd5b505050506040513d601f19601f820116820180604052508101906137779190614889565b90506103e8613784610b72565b8261378f919061493b565b6137999190614d48565b95506301e13380866137ab9190614d48565b9450600085856137bb919061493b565b90504260a2819055506137f060a060009054906101000a900473ffffffffffffffffffffffffffffffffffffffff16856133e1565b6137fa83826133e1565b50505050505050565b600073ffffffffffffffffffffffffffffffffffffffff168273ffffffffffffffffffffffffffffffffffffffff1603613872576040517f08c379a000000000000000000000000000000000000000000000000000000000815260040161386990615b0f565b60405180910390fd5b61387e82600083613c39565b6000603360008473ffffffffffffffffffffffffffffffffffffffff1673ffffffffffffffffffffffffffffffffffffffff16815260200190815260200160002054905081811015613905576040517f08c379a00000000000000000000000000000000000000000000000000000000081526004016138fc90615ba1565b60405180910390fd5b818103603360008573ffffffffffffffffffffffffffffffffffffffff1673ffffffffffffffffffffffffffffffffffffffff16815260200190815260200160002081905550816035600082825461395d9190614a6d565b92505081905550600073ffffffffffffffffffffffffffffffffffffffff168373ffffffffffffffffffffffffffffffffffffffff167fddf252ad1be2c89b69c2b068fc378daa952ba7f163c4a11628f55a4df523b3ef846040516139c291906143a3565b60405180910390a36139d683600084613e11565b505050565b6139fa8273ffffffffffffffffffffffffffffffffffffffff16613eba565b15613bed5773c02aaa39b223fe8d0a0e5c4f27ead9083c756cc273ffffffffffffffffffffffffffffffffffffffff1663d0e30db0826040518263ffffffff167c01000000000000000000000000000000000000000000000000000000000281526004016000604051808303818588803b158015613a7757600080fd5b505af1158015613a8b573d6000803e3d6000fd5b505050505073c02aaa39b223fe8d0a0e5c4f27ead9083c756cc273ffffffffffffffffffffffffffffffffffffffff1663a9059cbb8373c02aaa39b223fe8d0a0e5c4f27ead9083c756cc273ffffffffffffffffffffffffffffffffffffffff166370a08231306040518263ffffffff167c0100000000000000000000000000000000000000000000000000000000028152600401613b2a9190614484565b602060405180830381865afa158015613b47573d6000803e3d6000fd5b505050506040513d601f19601f82011682018060405250810190613b6b9190614889565b6040518363ffffffff167c0100000000000000000000000000000000000000000000000000000000028152600401613ba492919061557e565b6020604051808303816000875af1158015613bc3573d6000803e3d6000fd5b505050506040513d601f19601f82011682018060405250810190613be791906155d3565b50613c35565b8173ffffffffffffffffffffffffffffffffffffffff166108fc829081150290604051600060405180830381858888f19350505050158015613c33573d6000803e3d6000fd5b505b5050565b600073ffffffffffffffffffffffffffffffffffffffff168373ffffffffffffffffffffffffffffffffffffffff1614158015613ca9575060006003811115613c8557613c8461462e565b5b609e60149054906101000a900460ff166003811115613ca757613ca661462e565b5b145b15613e0c57600060a560008573ffffffffffffffffffffffffffffffffffffffff1673ffffffffffffffffffffffffffffffffffffffff168152602001908152602001600020549050600060a560008573ffffffffffffffffffffffffffffffffffffffff1673ffffffffffffffffffffffffffffffffffffffff168152602001908152602001600020549050818114613e095760008103613d87578260a46000828254613d579190614a6d565b925050819055508183613d6a919061493b565b609c6000828254613d7b9190614a6d565b92505081905550613e08565b60008203613dd1578260a46000828254613da191906148e5565b925050819055508083613db4919061493b565b609c6000828254613dc591906148e5565b92505081905550613e07565b8183613ddd919061493b565b8184613de9919061493b565b609c54613df691906148e5565b613e009190614a6d565b609c819055505b5b5b50505b505050565b505050565b6000808273ffffffffffffffffffffffffffffffffffffffff163b119050919050565b600060019054906101000a900460ff16613e88576040517f08c379a0000000000000000000000000000000000000000000000000000000008152600401613e7f90615926565b60405180910390fd5b8160369080519060200190613e9e929190613edd565b508060379080519060200190613eb5929190613edd565b505050565b6000808273ffffffffffffffffffffffffffffffffffffffff163b119050919050565b828054613ee99061476b565b90600052602060002090601f016020900481019282613f0b5760008555613f52565b82601f10613f2457805160ff1916838001178555613f52565b82800160010185558215613f52579182015b82811115613f51578251825591602001919060010190613f36565b5b509050613f5f9190613f63565b5090565b5b80821115613f7c576000816000905550600101613f64565b5090565b600081519050919050565b600082825260208201905092915050565b60005b83811015613fba578082015181840152602081019050613f9f565b83811115613fc9576000848401525b50505050565b6000601f19601f8301169050919050565b6000613feb82613f80565b613ff58185613f8b565b9350614005818560208601613f9c565b61400e81613fcf565b840191505092915050565b600060208201905081810360008301526140338184613fe0565b905092915050565b6000604051905090565b600080fd5b600080fd5b600073ffffffffffffffffffffffffffffffffffffffff82169050919050565b600061407a8261404f565b9050919050565b61408a8161406f565b811461409557600080fd5b50565b6000813590506140a781614081565b92915050565b6000819050919050565b6140c0816140ad565b81146140cb57600080fd5b50565b6000813590506140dd816140b7565b92915050565b600080604083850312156140fa576140f9614045565b5b600061410885828601614098565b9250506020614119858286016140ce565b9150509250929050565b60008115159050919050565b61413881614123565b82525050565b6000602082019050614153600083018461412f565b92915050565b60006020828403121561416f5761416e614045565b5b600061417d84828501614098565b91505092915050565b600080fd5b600080fd5b7f4e487b7100000000000000000000000000000000000000000000000000000000600052604160045260246000fd5b6141c882613fcf565b810181811067ffffffffffffffff821117156141e7576141e6614190565b5b80604052505050565b60006141fa61403b565b905061420682826141bf565b919050565b600067ffffffffffffffff82111561422657614225614190565b5b61422f82613fcf565b9050602081019050919050565b82818337600083830152505050565b600061425e6142598461420b565b6141f0565b90508281526020810184848401111561427a5761427961418b565b5b61428584828561423c565b509392505050565b600082601f8301126142a2576142a1614186565b5b81356142b284826020860161424b565b91505092915050565b600080600080608085870312156142d5576142d4614045565b5b60006142e387828801614098565b94505060206142f487828801614098565b9350506040614305878288016140ce565b925050606085013567ffffffffffffffff8111156143265761432561404a565b5b6143328782880161428d565b91505092959194509250565b60007fffffffff0000000000000000000000000000000000000000000000000000000082169050919050565b6143738161433e565b82525050565b600060208201905061438e600083018461436a565b92915050565b61439d816140ad565b82525050565b60006020820190506143b86000830184614394565b92915050565b6000806000606084860312156143d7576143d6614045565b5b60006143e586828701614098565b93505060206143f686828701614098565b9250506040614407868287016140ce565b9150509250925092565b60006020828403121561442757614426614045565b5b6000614435848285016140ce565b91505092915050565b600060ff82169050919050565b6144548161443e565b82525050565b600060208201905061446f600083018461444b565b92915050565b61447e8161406f565b82525050565b60006020820190506144996000830184614475565b92915050565b600067ffffffffffffffff8211156144ba576144b9614190565b5b6144c382613fcf565b9050602081019050919050565b60006144e36144de8461449f565b6141f0565b9050828152602081018484840111156144ff576144fe61418b565b5b61450a84828561423c565b509392505050565b600082601f83011261452757614526614186565b5b81356145378482602086016144d0565b91505092915050565b600080600080600080600080610100898b03121561456157614560614045565b5b600061456f8b828c01614098565b98505060206145808b828c01614098565b97505060406145918b828c016140ce565b96505060606145a28b828c016140ce565b95505060806145b38b828c016140ce565b94505060a06145c48b828c016140ce565b93505060c089013567ffffffffffffffff8111156145e5576145e461404a565b5b6145f18b828c01614512565b92505060e089013567ffffffffffffffff8111156146125761461161404a565b5b61461e8b828c01614512565b9150509295985092959890939650565b7f4e487b7100000000000000000000000000000000000000000000000000000000600052602160045260246000fd5b6004811061466e5761466d61462e565b5b50565b600081905061467f8261465d565b919050565b600061468f82614671565b9050919050565b61469f81614684565b82525050565b60006020820190506146ba6000830184614696565b92915050565b60006146cb8261404f565b9050919050565b6146db816146c0565b82525050565b60006020820190506146f660008301846146d2565b92915050565b6000806040838503121561471357614712614045565b5b600061472185828601614098565b925050602061473285828601614098565b9150509250929050565b7f4e487b7100000000000000000000000000000000000000000000000000000000600052602260045260246000fd5b6000600282049050600182168061478357607f821691505b6020821081036147965761479561473c565b5b50919050565b7f7570646174653a6e6f742063757261746f720000000000000000000000000000600082015250565b60006147d2601283613f8b565b91506147dd8261479c565b602082019050919050565b60006020820190508181036000830152614801816147c5565b9050919050565b7f6269643a61756374696f6e206973206e6f74206c697665000000000000000000600082015250565b600061483e601783613f8b565b915061484982614808565b602082019050919050565b6000602082019050818103600083015261486d81614831565b9050919050565b600081519050614883816140b7565b92915050565b60006020828403121561489f5761489e614045565b5b60006148ad84828501614874565b91505092915050565b7f4e487b7100000000000000000000000000000000000000000000000000000000600052601160045260246000fd5b60006148f0826140ad565b91506148fb836140ad565b9250827fffffffffffffffffffffffffffffffffffffffffffffffffffffffffffffffff038211156149305761492f6148b6565b5b828201905092915050565b6000614946826140ad565b9150614951836140ad565b9250817fffffffffffffffffffffffffffffffffffffffffffffffffffffffffffffffff048311821515161561498a576149896148b6565b5b828202905092915050565b7f6269643a746f6f206c6f77206269640000000000000000000000000000000000600082015250565b60006149cb600f83613f8b565b91506149d682614995565b602082019050919050565b600060208201905081810360008301526149fa816149be565b9050919050565b7f6269643a61756374696f6e20656e646564000000000000000000000000000000600082015250565b6000614a37601183613f8b565b9150614a4282614a01565b602082019050919050565b60006020820190508181036000830152614a6681614a2a565b9050919050565b6000614a78826140ad565b9150614a83836140ad565b925082821015614a9657614a956148b6565b5b828203905092915050565b600081519050614ab081614081565b92915050565b600060208284031215614acc57614acb614045565b5b6000614ada84828501614aa1565b91505092915050565b7f6b69636b3a6e6f7420676f760000000000000000000000000000000000000000600082015250565b6000614b19600c83613f8b565b9150614b2482614ae3565b602082019050919050565b60006020820190508181036000830152614b4881614b0c565b9050919050565b7f7570646174653a696e76616c69642061756374696f6e206c656e677468000000600082015250565b6000614b85601d83613f8b565b9150614b9082614b4f565b602082019050919050565b60006020820190508181036000830152614bb481614b78565b9050919050565b6000819050919050565b6000819050919050565b6000614bea614be5614be084614bbb565b614bc5565b61443e565b9050919050565b614bfa81614bcf565b82525050565b6000602082019050614c156000830184614bf1565b92915050565b7f7570646174653a61756374696f6e206c6976652063616e6e6f7420757064617460008201527f6520707269636500000000000000000000000000000000000000000000000000602082015250565b6000614c77602783613f8b565b9150614c8282614c1b565b604082019050919050565b60006020820190508181036000830152614ca681614c6a565b9050919050565b7f7570646174653a6e6f7420616e20757064617465000000000000000000000000600082015250565b6000614ce3601483613f8b565b9150614cee82614cad565b602082019050919050565b60006020820190508181036000830152614d1281614cd6565b9050919050565b7f4e487b7100000000000000000000000000000000000000000000000000000000600052601260045260246000fd5b6000614d53826140ad565b9150614d5e836140ad565b925082614d6e57614d6d614d19565b5b828204905092915050565b7f7570646174653a7265736572766520707269636520746f6f206c6f7700000000600082015250565b6000614daf601c83613f8b565b9150614dba82614d79565b602082019050919050565b60006020820190508181036000830152614dde81614da2565b9050919050565b7f7570646174653a7265736572766520707269636520746f6f2068696768000000600082015250565b6000614e1b601d83613f8b565b9150614e2682614de5565b602082019050919050565b60006020820190508181036000830152614e4a81614e0e565b9050919050565b7f72656d6f76653a6e6f7420676f76000000000000000000000000000000000000600082015250565b6000614e87600e83613f8b565b9150614e9282614e51565b602082019050919050565b60006020820190508181036000830152614eb681614e7a565b9050919050565b6000819050919050565b6000614ee2614edd614ed884614ebd565b614bc5565b6140ad565b9050919050565b614ef281614ec7565b82525050565b6000602082019050614f0d6000830184614ee9565b92915050565b7f7570646174653a63616e6e6f7420696e6372656173652066656520746869732060008201527f6869676800000000000000000000000000000000000000000000000000000000602082015250565b6000614f6f602483613f8b565b9150614f7a82614f13565b604082019050919050565b60006020820190508181036000830152614f9e81614f62565b9050919050565b7f636173683a7661756c74206e6f7420636c6f7365642079657400000000000000600082015250565b6000614fdb601983613f8b565b9150614fe682614fa5565b602082019050919050565b6000602082019050818103600083015261500a81614fce565b9050919050565b7f636173683a6e6f20746f6b656e7320746f2063617368206f7574000000000000600082015250565b6000615047601a83613f8b565b915061505282615011565b602082019050919050565b600060208201905081810360008301526150768161503a565b9050919050565b7f45524332303a2064656372656173656420616c6c6f77616e63652062656c6f7760008201527f207a65726f000000000000000000000000000000000000000000000000000000602082015250565b60006150d9602583613f8b565b91506150e48261507d565b604082019050919050565b60006020820190508181036000830152615108816150cc565b9050919050565b7f72656465656d3a6e6f2072656465656d696e6700000000000000000000000000600082015250565b6000615145601383613f8b565b91506151508261510f565b602082019050919050565b6000602082019050818103600083015261517481615138565b9050919050565b60006060820190506151906000830186614475565b61519d6020830185614475565b6151aa6040830184614394565b949350505050565b7f73746172743a6e6f2061756374696f6e20737461727473000000000000000000600082015250565b60006151e8601783613f8b565b91506151f3826151b2565b602082019050919050565b60006020820190508181036000830152615217816151db565b9050919050565b7f73746172743a746f6f206c6f7720626964000000000000000000000000000000600082015250565b6000615254601183613f8b565b915061525f8261521e565b602082019050919050565b6000602082019050818103600083015261528381615247565b9050919050565b7f73746172743a6e6f7420656e6f75676820766f74657273000000000000000000600082015250565b60006152c0601783613f8b565b91506152cb8261528a565b602082019050919050565b600060208201905081810360008301526152ef816152b3565b9050919050565b7f656e643a7661756c742068617320616c726561647920636c6f73656400000000600082015250565b600061532c601c83613f8b565b9150615337826152f6565b602082019050919050565b6000602082019050818103600083015261535b8161531f565b9050919050565b7f656e643a61756374696f6e206c69766500000000000000000000000000000000600082015250565b6000615398601083613f8b565b91506153a382615362565b602082019050919050565b600060208201905081810360008301526153c78161538b565b9050919050565b60006153e96153e46153df8461404f565b614bc5565b61404f565b9050919050565b60006153fb826153ce565b9050919050565b600061540d826153f0565b9050919050565b61541d81615402565b82525050565b60006060820190506154386000830186614475565b6154456020830185615414565b6154526040830184614394565b949350505050565b7f45524332303a20617070726f76652066726f6d20746865207a65726f2061646460008201527f7265737300000000000000000000000000000000000000000000000000000000602082015250565b60006154b6602483613f8b565b91506154c18261545a565b604082019050919050565b600060208201905081810360008301526154e5816154a9565b9050919050565b7f45524332303a20617070726f766520746f20746865207a65726f20616464726560008201527f7373000000000000000000000000000000000000000000000000000000000000602082015250565b6000615548602283613f8b565b9150615553826154ec565b604082019050919050565b600060208201905081810360008301526155778161553b565b9050919050565b60006040820190506155936000830185614475565b6155a06020830184614394565b9392505050565b6155b081614123565b81146155bb57600080fd5b50565b6000815190506155cd816155a7565b92915050565b6000602082840312156155e9576155e8614045565b5b60006155f7848285016155be565b91505092915050565b7f45524332303a20696e73756666696369656e7420616c6c6f77616e6365000000600082015250565b6000615636601d83613f8b565b915061564182615600565b602082019050919050565b6000602082019050818103600083015261566581615629565b9050919050565b7f45524332303a207472616e736665722066726f6d20746865207a65726f20616460008201527f6472657373000000000000000000000000000000000000000000000000000000602082015250565b60006156c8602583613f8b565b91506156d38261566c565b604082019050919050565b600060208201905081810360008301526156f7816156bb565b9050919050565b7f45524332303a207472616e7366657220746f20746865207a65726f206164647260008201527f6573730000000000000000000000000000000000000000000000000000000000602082015250565b600061575a602383613f8b565b9150615765826156fe565b604082019050919050565b600060208201905081810360008301526157898161574d565b9050919050565b7f45524332303a207472616e7366657220616d6f756e742065786365656473206260008201527f616c616e63650000000000000000000000000000000000000000000000000000602082015250565b60006157ec602683613f8b565b91506157f782615790565b604082019050919050565b6000602082019050818103600083015261581b816157df565b9050919050565b7f496e697469616c697a61626c653a20636f6e747261637420697320616c72656160008201527f647920696e697469616c697a6564000000000000000000000000000000000000602082015250565b600061587e602e83613f8b565b915061588982615822565b604082019050919050565b600060208201905081810360008301526158ad81615871565b9050919050565b7f496e697469616c697a61626c653a20636f6e7472616374206973206e6f74206960008201527f6e697469616c697a696e67000000000000000000000000000000000000000000602082015250565b6000615910602b83613f8b565b915061591b826158b4565b604082019050919050565b6000602082019050818103600083015261593f81615903565b9050919050565b7f45524332303a206d696e7420746f20746865207a65726f206164647265737300600082015250565b600061597c601f83613f8b565b915061598782615946565b602082019050919050565b600060208201905081810360008301526159ab8161596f565b9050919050565b7f636c61696d3a63616e6e6f7420636c61696d2061667465722061756374696f6e60008201527f20656e6473000000000000000000000000000000000000000000000000000000602082015250565b6000615a0e602583613f8b565b9150615a19826159b2565b604082019050919050565b60006020820190508181036000830152615a3d81615a01565b9050919050565b615a4d816146c0565b8114615a5857600080fd5b50565b600081519050615a6a81615a44565b92915050565b600060208284031215615a8657615a85614045565b5b6000615a9484828501615a5b565b91505092915050565b7f45524332303a206275726e2066726f6d20746865207a65726f2061646472657360008201527f7300000000000000000000000000000000000000000000000000000000000000602082015250565b6000615af9602183613f8b565b9150615b0482615a9d565b604082019050919050565b60006020820190508181036000830152615b2881615aec565b9050919050565b7f45524332303a206275726e20616d6f756e7420657863656564732062616c616e60008201527f6365000000000000000000000000000000000000000000000000000000000000602082015250565b6000615b8b602283613f8b565b9150615b9682615b2f565b604082019050919050565b60006020820190508181036000830152615bba81615b7e565b905091905056fea2646970667358221220677f271a1b3a9c77165ba98c85ab56066c02b7b0a2048ada158477737bdd3bba64736f6c634300080d0033",
  "immutableReferences": {},
  "source": "//SPDX-License-Identifier: MIT\npragma solidity ^0.8.0;\n\nimport \"./Interfaces/IWETH.sol\";\nimport \"@openzeppelin/contracts/utils/math/Math.sol\";\nimport \"@openzeppelin/contracts/token/ERC20/ERC20.sol\";\nimport \"@openzeppelin/contracts/token/ERC721/ERC721.sol\";\nimport \"@openzeppelin/contracts/token/ERC721/utils/ERC721Holder.sol\";\n\nimport \"./Settings.sol\";\n\nimport \"@openzeppelin/contracts-upgradeable/token/ERC721/utils/ERC721HolderUpgradeable.sol\";\nimport \"@openzeppelin/contracts-upgradeable/token/ERC20/ERC20Upgradeable.sol\";\n\ncontract TokenVault is ERC20Upgradeable, ERC721HolderUpgradeable {\n  using Address for address;\n\n  // address of logic contract\n  address public logic;\n\n  /// -----------------------------------\n  /// -------- BASIC INFORMATION --------\n  /// -----------------------------------\n\n  /// @notice weth address\n  address public constant weth = 0xC02aaA39b223FE8D0A0e5C4F27eAD9083C756Cc2;\n\n  /// -----------------------------------\n  /// -------- TOKEN INFORMATION --------\n  /// -----------------------------------\n\n  /// @notice the ERC721 token address of the vault's token\n  address public token;\n\n  /// @notice the ERC721 token ID of the vault's token\n  uint256 public id;\n\n  /// -------------------------------------\n  /// -------- AUCTION INFORMATION --------\n  /// -------------------------------------\n\n  /// @notice the unix timestamp end time of the token auction\n  uint256 public auctionEnd;\n\n  /// @notice the length of auctions\n  uint256 public auctionLength;\n\n  /// @notice reservePrice * votingTokens\n  uint256 public reserveTotal;\n\n  /// @notice the current price of the token during an auction\n  uint256 public livePrice;\n\n  /// @notice the current user winning the token auction\n  address payable public winning;\n\n  enum State {\n    inactive,\n    live,\n    ended,\n    redeemed\n  }\n\n  State public auctionState;\n\n  /// -----------------------------------\n  /// -------- VAULT INFORMATION --------\n  /// -----------------------------------\n\n  /// @notice the governance contract which gets paid in ETH\n  address public settings;\n\n  /// @notice the address who initially deposited the NFT\n  address public curator;\n\n  /// @notice the AUM fee paid to the curator yearly. 3 decimals. ie. 100 = 10%\n  uint256 public fee;\n\n  /// @notice the last timestamp where fees were claimed\n  uint256 public lastClaimed;\n\n  /// @notice a boolean to indicate if the vault has closed\n  bool public vaultClosed;\n\n  /// @notice the number of ownership tokens voting on the reserve price at any given time\n  uint256 public votingTokens;\n\n  /// @notice a mapping of users to their desired token price\n  mapping(address => uint256) public userPrices;\n\n  /// ------------------------\n  /// -------- EVENTS --------\n  /// ------------------------\n\n  /// @notice An event emitted when a user updates their price\n  event PriceUpdate(address indexed user, uint256 price);\n\n  /// @notice An event emitted when an auction starts\n  event Start(address indexed buyer, uint256 price);\n\n  /// @notice An event emitted when a bid is made\n  event Bid(address indexed buyer, uint256 price);\n\n  /// @notice An event emitted when an auction is won\n  event Won(address indexed buyer, uint256 price);\n\n  /// @notice An event emitted when someone redeems all tokens for the NFT\n  event Redeem(address indexed redeemer);\n\n  /// @notice An event emitted when someone cashes in ERC20 tokens for ETH from an ERC721 token sale\n  event Cash(address indexed owner, uint256 shares);\n\n  constructor(address _settings) {\n    settings = _settings;\n  }\n\n  function initialize(\n    address _curator,\n    address _token,\n    uint256 _id,\n    uint256 _supply,\n    uint256 _listPrice,\n    uint256 _fee,\n    string memory _name,\n    string memory _symbol\n  ) external initializer {\n    // initialize inherited contracts\n    __ERC20_init(_name, _symbol);\n    __ERC721Holder_init();\n    // set storage variables\n    token = _token;\n    id = _id;\n    reserveTotal = _listPrice * _supply;\n    auctionLength = 7 days;\n    curator = _curator;\n    fee = _fee;\n    lastClaimed = block.timestamp;\n    votingTokens = _listPrice == 0 ? 0 : _supply;\n\n    auctionState = State.inactive;\n\n    _mint(_curator, _supply);\n    userPrices[_curator] = _listPrice;\n  }\n\n  /// --------------------------------\n  /// -------- VIEW FUNCTIONS --------\n  /// --------------------------------\n\n  function reservePrice() public view returns (uint256) {\n    return votingTokens == 0 ? 0 : reserveTotal / votingTokens;\n  }\n\n  /// -------------------------------\n  /// -------- GOV FUNCTIONS --------\n  /// -------------------------------\n\n  /// @notice allow governance to boot a bad actor curator\n  /// @param _curator the new curator\n  function kickCurator(address _curator) external {\n    require(msg.sender == Ownable(settings).owner(), \"kick:not gov\");\n\n    curator = _curator;\n  }\n\n  /// @notice allow governance to remove bad reserve prices\n  function removeReserve(address _user) external {\n    require(msg.sender == Ownable(settings).owner(), \"remove:not gov\");\n    require(\n      auctionState == State.inactive,\n      \"update:auction live cannot update price\"\n    );\n\n    uint256 old = userPrices[_user];\n    require(0 != old, \"update:not an update\");\n    uint256 weight = balanceOf(_user);\n\n    votingTokens -= weight;\n    reserveTotal -= weight * old;\n\n    userPrices[_user] = 0;\n\n    emit PriceUpdate(_user, 0);\n  }\n\n  /// -----------------------------------\n  /// -------- CURATOR FUNCTIONS --------\n  /// -----------------------------------\n\n  /// @notice allow curator to update the curator address\n  /// @param _curator the new curator\n  function updateCurator(address _curator) external {\n    require(msg.sender == curator, \"update:not curator\");\n\n    curator = _curator;\n  }\n\n  /// @notice allow curator to update the auction length\n  /// @param _length the new base price\n  function updateAuctionLength(uint256 _length) external {\n    require(msg.sender == curator, \"update:not curator\");\n    require(\n      _length >= ISettings(settings).minAuctionLength() &&\n        _length <= ISettings(settings).maxAuctionLength(),\n      \"update:invalid auction length\"\n    );\n\n    auctionLength = _length;\n  }\n\n  /// @notice allow the curator to change their fee\n  /// @param _fee the new fee\n  function updateFee(uint256 _fee) external {\n    require(msg.sender == curator, \"update:not curator\");\n    require(\n      _fee <= ISettings(settings).maxCuratorFee(),\n      \"update:cannot increase fee this high\"\n    );\n\n    _claimFees();\n\n    fee = _fee;\n  }\n\n  /// @notice external function to claim fees for the curator and governance\n  function claimFees() external {\n    _claimFees();\n  }\n\n  /// @dev interal fuction to calculate and mint fees\n  function _claimFees() internal {\n    require(\n      auctionState != State.ended,\n      \"claim:cannot claim after auction ends\"\n    );\n\n    // get how much in fees the curator would make in a year\n    uint256 currentAnnualFee = (fee * totalSupply()) / 1000;\n    // get how much that is per second;\n    uint256 feePerSecond = currentAnnualFee / 31536000;\n    // get how many seconds they are eligible to claim\n    uint256 sinceLastClaim = block.timestamp - lastClaimed;\n    // get the amount of tokens to mint\n    uint256 curatorMint = sinceLastClaim * feePerSecond;\n\n    // now lets do the same for governance\n    address govAddress = ISettings(settings).feeReceiver();\n    uint256 govFee = ISettings(settings).governanceFee();\n    currentAnnualFee = (govFee * totalSupply()) / 1000;\n    feePerSecond = currentAnnualFee / 31536000;\n    uint256 govMint = sinceLastClaim * feePerSecond;\n\n    lastClaimed = block.timestamp;\n\n    _mint(curator, curatorMint);\n    _mint(govAddress, govMint);\n  }\n\n  /// --------------------------------\n  /// -------- CORE FUNCTIONS --------\n  /// --------------------------------\n\n  /// @notice a function for an end user to update their desired sale price\n  /// @param _new the desired price in ETH\n  function updateUserPrice(uint256 _new) external {\n    require(\n      auctionState == State.inactive,\n      \"update:auction live cannot update price\"\n    );\n    uint256 old = userPrices[msg.sender];\n    require(_new != old, \"update:not an update\");\n    uint256 weight = balanceOf(msg.sender);\n\n    if (votingTokens == 0) {\n      votingTokens = weight;\n      reserveTotal = weight * _new;\n    }\n    // they are the only one voting\n    else if (weight == votingTokens && old != 0) {\n      reserveTotal = weight * _new;\n    }\n    // previously they were not voting\n    else if (old == 0) {\n      uint256 averageReserve = reserveTotal / votingTokens;\n\n      uint256 reservePriceMin = (averageReserve *\n        ISettings(settings).minReserveFactor()) / 1000;\n      require(_new >= reservePriceMin, \"update:reserve price too low\");\n      uint256 reservePriceMax = (averageReserve *\n        ISettings(settings).maxReserveFactor()) / 1000;\n      require(_new <= reservePriceMax, \"update:reserve price too high\");\n\n      votingTokens += weight;\n      reserveTotal += weight * _new;\n    }\n    // they no longer want to vote\n    else if (_new == 0) {\n      votingTokens -= weight;\n      reserveTotal -= weight * old;\n    }\n    // they are updating their vote\n    else {\n      uint256 averageReserve = (reserveTotal - (old * weight)) /\n        (votingTokens - weight);\n\n      uint256 reservePriceMin = (averageReserve *\n        ISettings(settings).minReserveFactor()) / 1000;\n      require(_new >= reservePriceMin, \"update:reserve price too low\");\n      uint256 reservePriceMax = (averageReserve *\n        ISettings(settings).maxReserveFactor()) / 1000;\n      require(_new <= reservePriceMax, \"update:reserve price too high\");\n\n      reserveTotal = reserveTotal + (weight * _new) - (weight * old);\n    }\n\n    userPrices[msg.sender] = _new;\n\n    emit PriceUpdate(msg.sender, _new);\n  }\n\n  /// @notice an internal function used to update sender and receivers price on token transfer\n  /// @param _from the ERC20 token sender\n  /// @param _to the ERC20 token receiver\n  /// @param _amount the ERC20 token amount\n  function _beforeTokenTransfer(\n    address _from,\n    address _to,\n    uint256 _amount\n  ) internal virtual override {\n    if (_from != address(0) && auctionState == State.inactive) {\n      uint256 fromPrice = userPrices[_from];\n      uint256 toPrice = userPrices[_to];\n\n      // only do something if users have different reserve price\n      if (toPrice != fromPrice) {\n        // new holder is not a voter\n        if (toPrice == 0) {\n          // get the average reserve price ignoring the senders amount\n          votingTokens -= _amount;\n          reserveTotal -= _amount * fromPrice;\n        }\n        // old holder is not a voter\n        else if (fromPrice == 0) {\n          votingTokens += _amount;\n          reserveTotal += _amount * toPrice;\n        }\n        // both holders are voters\n        else {\n          reserveTotal =\n            reserveTotal +\n            (_amount * toPrice) -\n            (_amount * fromPrice);\n        }\n      }\n    }\n  }\n\n  /// @notice kick off an auction. Must send reservePrice in ETH\n  function start() external payable {\n    require(auctionState == State.inactive, \"start:no auction starts\");\n    require(msg.value >= reservePrice(), \"start:too low bid\");\n    require(\n      votingTokens * 1000 >=\n        ISettings(settings).minVotePercentage() * totalSupply(),\n      \"start:not enough voters\"\n    );\n\n    auctionEnd = block.timestamp + auctionLength;\n    auctionState = State.live;\n\n    livePrice = msg.value;\n    winning = payable(msg.sender);\n\n    emit Start(msg.sender, msg.value);\n  }\n\n  /// @notice an external function to bid on purchasing the vaults NFT. The msg.value is the bid amount\n  function bid() external payable {\n    require(auctionState == State.live, \"bid:auction is not live\");\n    uint256 increase = ISettings(settings).minBidIncrease() + 1000;\n    require(msg.value * 1000 >= livePrice * increase, \"bid:too low bid\");\n    require(block.timestamp < auctionEnd, \"bid:auction ended\");\n\n    // If bid is within 15 minutes of auction end, extend auction\n    if (auctionEnd - block.timestamp <= 15 minutes) {\n      auctionEnd += 15 minutes;\n    }\n\n    _sendWETH(winning, livePrice);\n\n    livePrice = msg.value;\n    winning = payable(msg.sender);\n\n    emit Bid(msg.sender, msg.value);\n  }\n\n  /// @notice an external function to end an auction after the timer has run out\n  function end() external {\n    require(auctionState == State.live, \"end:vault has already closed\");\n    require(block.timestamp >= auctionEnd, \"end:auction live\");\n\n    _claimFees();\n\n    // transfer erc721 to winner\n    IERC721(token).transferFrom(address(this), winning, id);\n\n    auctionState = State.ended;\n\n    emit Won(winning, livePrice);\n  }\n\n  /// @notice an external function to burn all ERC20 tokens to receive the ERC721 token\n  function redeem() external {\n    require(auctionState == State.inactive, \"redeem:no redeeming\");\n    _burn(msg.sender, totalSupply());\n\n    // transfer erc721 to redeemer\n    IERC721(token).transferFrom(address(this), msg.sender, id);\n\n    auctionState = State.redeemed;\n\n    emit Redeem(msg.sender);\n  }\n\n  /// @notice an external function to burn ERC20 tokens to receive ETH from ERC721 token purchase\n  function cash() external {\n    require(auctionState == State.ended, \"cash:vault not closed yet\");\n    uint256 bal = balanceOf(msg.sender);\n    require(bal > 0, \"cash:no tokens to cash out\");\n    uint256 share = (bal * address(this).balance) / totalSupply();\n    _burn(msg.sender, bal);\n\n    _sendETHOrWETH(payable(msg.sender), share);\n\n    emit Cash(msg.sender, share);\n  }\n\n  /// @dev internal helper function to send ETH and WETH on failure\n  function _sendWETH(address who, uint256 amount) internal {\n    IWETH(weth).deposit{ value: amount }();\n    IWETH(weth).transfer(who, IWETH(weth).balanceOf(address(this)));\n  }\n\n  /// @dev internal helper function to send ETH and WETH on failure\n  function _sendETHOrWETH(address who, uint256 amount) internal {\n    // contracts get bet WETH because they can be mean\n    if (who.isContract()) {\n      IWETH(weth).deposit{ value: amount }();\n      IWETH(weth).transfer(who, IWETH(weth).balanceOf(address(this)));\n    } else {\n      payable(who).transfer(amount);\n    }\n  }\n}\n",
  "sourcePath": "/Users/drewhyte/Sites/SOLIDITY/openland-contract-moonriver/contracts/ERC721TokenVault.sol",
  "compiler": {
    "name": "solc",
    "version": "0.8.13+commit.abaa5c0e.Emscripten.clang"
  },
  "schemaVersion": "3.4.6",
  "updatedAt": "2022-05-11T08:28:02.740Z",
  "devdoc": {
    "kind": "dev",
    "methods": {
      "allowance(address,address)": {
        "details": "See {IERC20-allowance}."
      },
      "approve(address,uint256)": {
        "details": "See {IERC20-approve}. NOTE: If `amount` is the maximum `uint256`, the allowance is not updated on `transferFrom`. This is semantically equivalent to an infinite approval. Requirements: - `spender` cannot be the zero address."
      },
      "balanceOf(address)": {
        "details": "See {IERC20-balanceOf}."
      },
      "decimals()": {
        "details": "Returns the number of decimals used to get its user representation. For example, if `decimals` equals `2`, a balance of `505` tokens should be displayed to a user as `5.05` (`505 / 10 ** 2`). Tokens usually opt for a value of 18, imitating the relationship between Ether and Wei. This is the value {ERC20} uses, unless this function is overridden; NOTE: This information is only used for _display_ purposes: it in no way affects any of the arithmetic of the contract, including {IERC20-balanceOf} and {IERC20-transfer}."
      },
      "decreaseAllowance(address,uint256)": {
        "details": "Atomically decreases the allowance granted to `spender` by the caller. This is an alternative to {approve} that can be used as a mitigation for problems described in {IERC20-approve}. Emits an {Approval} event indicating the updated allowance. Requirements: - `spender` cannot be the zero address. - `spender` must have allowance for the caller of at least `subtractedValue`."
      },
      "increaseAllowance(address,uint256)": {
        "details": "Atomically increases the allowance granted to `spender` by the caller. This is an alternative to {approve} that can be used as a mitigation for problems described in {IERC20-approve}. Emits an {Approval} event indicating the updated allowance. Requirements: - `spender` cannot be the zero address."
      },
      "kickCurator(address)": {
        "params": {
          "_curator": "the new curator"
        }
      },
      "name()": {
        "details": "Returns the name of the token."
      },
      "onERC721Received(address,address,uint256,bytes)": {
        "details": "See {IERC721Receiver-onERC721Received}. Always returns `IERC721Receiver.onERC721Received.selector`."
      },
      "symbol()": {
        "details": "Returns the symbol of the token, usually a shorter version of the name."
      },
      "totalSupply()": {
        "details": "See {IERC20-totalSupply}."
      },
      "transfer(address,uint256)": {
        "details": "See {IERC20-transfer}. Requirements: - `to` cannot be the zero address. - the caller must have a balance of at least `amount`."
      },
      "transferFrom(address,address,uint256)": {
        "details": "See {IERC20-transferFrom}. Emits an {Approval} event indicating the updated allowance. This is not required by the EIP. See the note at the beginning of {ERC20}. NOTE: Does not update the allowance if the current allowance is the maximum `uint256`. Requirements: - `from` and `to` cannot be the zero address. - `from` must have a balance of at least `amount`. - the caller must have allowance for ``from``'s tokens of at least `amount`."
      },
      "updateAuctionLength(uint256)": {
        "params": {
          "_length": "the new base price"
        }
      },
      "updateCurator(address)": {
        "params": {
          "_curator": "the new curator"
        }
      },
      "updateFee(uint256)": {
        "params": {
          "_fee": "the new fee"
        }
      },
      "updateUserPrice(uint256)": {
        "params": {
          "_new": "the desired price in ETH"
        }
      }
    },
    "version": 1
  },
  "userdoc": {
    "events": {
      "Bid(address,uint256)": {
        "notice": "An event emitted when a bid is made"
      },
      "Cash(address,uint256)": {
        "notice": "An event emitted when someone cashes in ERC20 tokens for ETH from an ERC721 token sale"
      },
      "PriceUpdate(address,uint256)": {
        "notice": "An event emitted when a user updates their price"
      },
      "Redeem(address)": {
        "notice": "An event emitted when someone redeems all tokens for the NFT"
      },
      "Start(address,uint256)": {
        "notice": "An event emitted when an auction starts"
      },
      "Won(address,uint256)": {
        "notice": "An event emitted when an auction is won"
      }
    },
    "kind": "user",
    "methods": {
      "auctionEnd()": {
        "notice": "the unix timestamp end time of the token auction"
      },
      "auctionLength()": {
        "notice": "the length of auctions"
      },
      "bid()": {
        "notice": "an external function to bid on purchasing the vaults NFT. The msg.value is the bid amount"
      },
      "cash()": {
        "notice": "an external function to burn ERC20 tokens to receive ETH from ERC721 token purchase"
      },
      "claimFees()": {
        "notice": "external function to claim fees for the curator and governance"
      },
      "curator()": {
        "notice": "the address who initially deposited the NFT"
      },
      "end()": {
        "notice": "an external function to end an auction after the timer has run out"
      },
      "fee()": {
        "notice": "the AUM fee paid to the curator yearly. 3 decimals. ie. 100 = 10%"
      },
      "id()": {
        "notice": "the ERC721 token ID of the vault's token"
      },
      "kickCurator(address)": {
        "notice": "allow governance to boot a bad actor curator"
      },
      "lastClaimed()": {
        "notice": "the last timestamp where fees were claimed"
      },
      "livePrice()": {
        "notice": "the current price of the token during an auction"
      },
      "redeem()": {
        "notice": "an external function to burn all ERC20 tokens to receive the ERC721 token"
      },
      "removeReserve(address)": {
        "notice": "allow governance to remove bad reserve prices"
      },
      "reservePrice()": {
        "notice": "-------------------------------- -------- VIEW FUNCTIONS -------- --------------------------------"
      },
      "reserveTotal()": {
        "notice": "reservePrice * votingTokens"
      },
      "settings()": {
        "notice": "the governance contract which gets paid in ETH"
      },
      "start()": {
        "notice": "kick off an auction. Must send reservePrice in ETH"
      },
      "token()": {
        "notice": "the ERC721 token address of the vault's token"
      },
      "updateAuctionLength(uint256)": {
        "notice": "allow curator to update the auction length"
      },
      "updateCurator(address)": {
        "notice": "allow curator to update the curator address"
      },
      "updateFee(uint256)": {
        "notice": "allow the curator to change their fee"
      },
      "updateUserPrice(uint256)": {
        "notice": "a function for an end user to update their desired sale price"
      },
      "userPrices(address)": {
        "notice": "a mapping of users to their desired token price"
      },
      "vaultClosed()": {
        "notice": "a boolean to indicate if the vault has closed"
      },
      "votingTokens()": {
        "notice": "the number of ownership tokens voting on the reserve price at any given time"
      },
      "weth()": {
        "notice": "weth address"
      },
      "winning()": {
        "notice": "the current user winning the token auction"
      }
    },
    "version": 1
  }
}